:10000000C04100205177000035CB00003D77000053
:100010003D7700003D7700003D77000000000000C4
:100020000000000000000000000000001578000043
:100030003D77000000000000B57700003D7700002C
:10004000E1790000E1790000E1790000E179000048
:10005000E1790000E1790000E1790000E179000038
:10006000E1790000E1790000E1790000E179000028
:10007000E1790000E1790000E1790000E179000018
:10008000E1790000E1790000E1790000E179000008
:10009000E1790000E1790000E1790000E1790000F8
:1000A000E1790000E1790000E1790000E1790000E8
:1000B000E1790000E1790000E1790000E1790000D8
:1000C000E1790000E1790000E1790000E1790000C8
:1000D000E1790000E1790000E1790000E1790000B8
:1000E000E1790000E1790000E1790000E1790000A8
:1000F000E1790000E1790000E1790000E179000098
:1001000080F0004002E000BF81F0004142001FBFCC
:100110005FEA410392EA030F7FEA226C7FEA236CD5
:100120006AD04FEA1262D2EB1363C1BFD2184140CA
:1001300048404140B8BF5B42192B88BF704710F060
:10014000004F40F4000020F07F4018BF404211F003
:10015000004F41F4000121F07F4118BF494292EA6B
:10016000030F3FD0A2F1010241FA03FC10EB0C0097
:10017000C3F1200301FA03F100F0004302D5494224
:1001800060EB4000B0F5000F13D3B0F1807F06D3D1
:1001900040084FEA310102F10102FE2A51D2B1F1C9
:1001A000004F40EBC25008BF20F0010040EA0300BE
:1001B0007047490040EB0000013A28BFB0F5000F3E
:1001C000EDD2B0FA80FCACF1080CB2EB0C0200FAF4
:1001D0000CF0AABF00EBC25052421843BCBFD04043
:1001E0001843704792F0000F81F4000106BF80F4BD
:1001F00000000132013BB5E74FEA41037FEA226C80
:1002000018BF7FEA236C21D092EA030F04D092F04A
:10021000000F08BF0846704790EA010F1CBF00207E
:10022000704712F07F4F04D1400028BF40F00040DB
:10023000704712F100723CBF00F50000704700F0FB
:10024000004343F0FE4040F4000070477FEA226222
:1002500016BF08467FEA23630146420206BF5FEAF3
:10026000412390EA010F40F4800070474FF00003F3
:1002700004E000BF10F0004348BF40425FEA000CBA
:1002800008BF704743F0964301464FF000001CE062
:1002900050EA010208BF70474FF000030AE000BFB8
:1002A00050EA010208BF704711F0004302D54042F6
:1002B00061EB41015FEA010C02BF84460146002068
:1002C00043F0B64308BFA3F18053A3F50003BCFA83
:1002D0008CF2083AA3EBC25310DB01FA02FC634430
:1002E00000FA02FCC2F12002BCF1004F20FA02F237
:1002F00043EB020008BF20F00100704702F120022A
:1003000001FA02FCC2F1200250EA4C0021FA02F28A
:1003100043EB020008BF20EADC7070474FF0FF0C8F
:100320001CEAD0521EBF1CEAD15392EA0C0F93EA8A
:100330000C0F6FD01A4480EA010C400218BF5FEA2C
:1003400041211ED04FF0006343EA501043EA51119F
:10035000A0FB01310CF00040B1F5000F3EBF490099
:1003600041EAD3715B0040EA010062F17F02FD2A9D
:100370001DD8B3F1004F40EBC25008BF20F0010080
:10038000704790F0000F0CF0004C08BF49024CEA97
:10039000502040EA51207F3AC2BFD2F1FF0340EA29
:1003A000C250704740F400004FF00003013A5DDC9A
:1003B00012F1190FDCBF00F000407047C2F10002DB
:1003C000410021FA02F1C2F1200200FA02FC5FEAC8
:1003D000310040F1000053EA4C0308BF20EADC7012
:1003E000704792F0000F00F0004C02BF400010F484
:1003F000000F013AF9D040EA0C0093F0000F01F031
:10040000004C02BF490011F4000F013BF9D041EA52
:100410000C018FE70CEAD15392EA0C0F18BF93EA54
:100420000C0F0AD030F0004C18BF31F0004CD8D17E
:1004300080EA010000F00040704790F0000F17BF05
:1004400090F0004F084691F0000F91F0004F14D04B
:1004500092EA0C0F01D142020FD193EA0C0F03D1A3
:100460004B0218BF084608D180EA010000F00040A6
:1004700040F0FE4040F40000704740F0FE4040F481
:10048000400070474FF0FF0C1CEAD0521EBF1CEA20
:10049000D15392EA0C0F93EA0C0F69D0A2EB03023E
:1004A00080EA010C49024FEA402037D04FF08053D8
:1004B00043EA111143EA10130CF000408B4238BF9D
:1004C0005B0042F17D024FF4000C8B4224BF5B1AAB
:1004D00040EA0C00B3EB510F24BFA3EB510340EAF9
:1004E0005C00B3EB910F24BFA3EB910340EA9C00A7
:1004F000B3EBD10F24BFA3EBD10340EADC001B0117
:1005000018BF5FEA1C1CE0D1FD2A3FF650AF8B42BA
:1005100040EBC25008BF20F0010070470CF0004CC7
:100520004CEA50207F32C2BFD2F1FF0340EAC250F2
:10053000704740F400004FF00003013A37E792F0B3
:10054000000F00F0004C02BF400010F4000F013A11
:10055000F9D040EA0C0093F0000F01F0004C02BF0C
:10056000490011F4000F013BF9D041EA0C0195E775
:100570000CEAD15392EA0C0F08D142027FF47DAF0E
:1005800093EA0C0F7FF470AF084676E793EA0C0FFE
:1005900004D14B023FF44CAF08466EE730F0004CFC
:1005A00018BF31F0004CCAD130F000427FF45CAF8C
:1005B00031F000437FF43CAF5FE700BF4FF0FF3CFA
:1005C00006E000BF4FF0010C02E000BF4FF0010C4D
:1005D0004DF804CD4FEA40024FEA41037FEA226C16
:1005E00018BF7FEA236C11D001B052EA530C18BF38
:1005F00090EA010F58BFB2EB030088BFC81738BF9D
:100600006FEAE17018BF40F0010070477FEA226C8A
:1006100002D15FEA402C05D17FEA236CE4D15FEA86
:10062000412CE1D05DF8040B704700BF84460846BA
:100630006146FFE70FB5FFF7C9FF002848BF10F17B
:10064000000F0FBD4DF808EDFFF7F4FF0CBF0120C0
:1006500000205DF808FB00BF4DF808EDFFF7EAFF4A
:1006600034BF012000205DF808FB00BF4DF808ED05
:10067000FFF7E0FF94BF012000205DF808FB00BFFA
:100680004DF808EDFFF7D2FF94BF012000205DF880
:1006900008FB00BF4DF808EDFFF7C8FF34BF01208D
:1006A00000205DF808FB00BF4FEA4002B2F1FE4FA8
:1006B0000FD34FF09E03B3EB12620DD94FEA002324
:1006C00043F0004310F0004F23FA02F018BF4042FD
:1006D00070474FF00000704712F1610F01D14202E4
:1006E00005D110F0004008BF6FF0004070474FF098
:1006F000000070477BB972B90029BEBF00204FF0DF
:10070000004106E008BF00281CBF6FF000414FF019
:10071000FF3000F057B8ADF1080C6DE904CE0029A8
:1007200009DB002B1ADB00F057F8DDF804E0DDE907
:10073000022304B07047404261EB4101002B1BDBF8
:1007400000F04AF8DDF804E0DDE9022304B040429D
:1007500061EB4101524263EB43037047524263EB4A
:10076000430300F039F8DDF804E0DDE9022304B0CA
:10077000404261EB41017047524263EB430300F09A
:100780002BF8DDF804E0DDE9022304B0524263EB0C
:100790004303704753B94AB9002908BF00281CBF5A
:1007A0004FF0FF314FF0FF3000F00CB8ADF1080C06
:1007B0006DE904CE00F010F8DDF804E0DDE9022375
:1007C00004B07047704700BF034613F8012B002A9E
:1007D000FBD1181A013870472DE9F04786468C4640
:1007E0000846089E154674461946002B40F0C28004
:1007F0008542B2FA82F245D94AB1C2F1200300FA29
:1008000002FC2EFA03F3954043EA0C0C94404FEAA5
:10081000154EA8B2BCFBFEF8230C0EFB18CC08FB4F
:1008200000F943EA0C43994528D9EB1808F1FF3742
:1008300004D2994502D9A8F102072B44A3EB09037E
:10084000A4B2B3FBFEFC0EFB1C330CFB00F044EA2D
:100850000344A04214D92C190CF1FF3304D2A04256
:1008600002D9ACF102032C44241A43EA07401EB11A
:10087000D440002334607360BDE8F0874746DDE76D
:100880006346F1E792BB431B01214FEA154EAFB21D
:10089000B3FBFEFC200C0EFB1C330CFB07F840EAFC
:1008A0000343984562D9EB180CF1FF3004D2984508
:1008B00002D9ACF102002B44A3EB0803A4B2B3FBB2
:1008C000FEFC0EFB1C330CFB07F744EA0344A74273
:1008D0004ED92C190CF1FF3304D2A74202D9ACF146
:1008E00002032C44E41B43EA0040C0E7C2F12003AA
:1008F00020FA03F1954090402EFA03F303434FEAA8
:10090000154EAFB2B1FBFEFC0EFB1C10190C0CFB1C
:1009100007F841EA0041884504FA02F422D969182F
:100920000CF1FF3004D2884502D9ACF10200294411
:10093000A1EB08019BB2B1FBFEFC0EFB1C110CFBF2
:1009400007F743EA01439F420ED9EB180CF1FF3140
:1009500004D29F4202D9ACF102012B44DB1B41EAD5
:10096000004192E76046E3E76146F7E76046A3E7A8
:100970006346B7E7834206D916B9002108467BE7EC
:10098000C6E900E0F9E7B3FA83F78FB9834201D3F0
:10099000724508D8BEEB020460EB030301209C46BD
:1009A0001EB9002168E73846FAE7C6E9004CF8E7C7
:1009B000C7F1200CBB4022FA0CF41C432EFA0CF1B8
:1009C00020FA0CF3B84001434FEA14490EFA07F538
:1009D000B3FBF9F81FFA84FE09FB18300B0C08FB77
:1009E0000EFA43EA00439A4502FA07F240D9E318A7
:1009F00008F1FF3004D29A4502D9A8F1020023443D
:100A0000A3EB0A0389B2B3FBF9F809FB183308FB1F
:100A10000EFE41EA03418E452CD9611808F1FF33DF
:100A200004D28E4502D9A8F10203214443EA0040D2
:100A3000A0FB0298A1EB0E014145CE46434602D3EE
:100A400006D14D4504D2B9EB020E68EB0403013820
:100A5000002EA6D0B5EB0E0261EB030101FA0CFCEF
:100A600022FA07F34CEA0303F940C6E9003198E79C
:100A70004046C5E74346D9E72DE9F04705F012FCAB
:100A800000F040FF00B1FEE7364800F08FFF04465B
:100A900000B1FEE701F00AF8204601F055F82046C3
:100AA00000F0B8FE204600F0C1FE204600F0CAFE6D
:100AB0002D482E4F022100F0D1FE4FF07E584FF00E
:100AC00000092B4CDFF8ACA005200AF0CDFF00F0A8
:100AD000AFF8204600F0E4FED4E90A01FFF7D8FBA6
:100AE0003946FFF71BFC0646CAF80000D4E90C01A2
:100AF000FFF7CEFB3946FFF711FC4146CAF8040068
:100B000005463046FFF7A8FD1B4C30B1494630463C
:100B1000FFF7C0FD08B10123237041462846FFF7C7
:100B20009BFD30B149462846FFF7B4FD08B10123CB
:100B300063702178032005F095FB6178012005F0B2
:100B400091FB64200AF090FF002103202170617066
:100B500005F088FB6178012005F084FB64200AF031
:100B600083FFAEE7E0210020DC21002091B1993B1A
:100B700018220020282500206227002070B5174D7C
:100B8000174E01F0F7FA044601F004FB034604F4A3
:100B90008840B0F5884F03D101F0CCFA002070BD39
:100BA0002C4205D00D4801F0C5FA4FF0FF30F6E7B2
:100BB000344003F478631C430BD001F025FA084855
:100BC00001F0B8FA4FF4786001F0C4FA6FF0010058
:100BD000E5E732200AF0EAFFD3E700BF00902304E4
:100BE0000400141A38B5114D01F0C4FA044601F09E
:100BF000D1FA230604D5802001F09CFA002038BDEC
:100C00002C4000F4786004430BD001F0FDF9074854
:100C100001F090FA4FF4786001F09CFA6FF0010057
:100C2000EDE732200AF0C2FFDEE700BF0400141A2D
:100C30002DE9F04FB34BB44DB44CB5484FF000081C
:100C40004FF000098FB0C3E90089B24BC3E90089B6
:100C5000B14B0026C3E90089B04B2E7040223146CB
:100C600000AFC3E9008926700CF094FCAC4BAD4892
:100C700040223146C3E900890CF08CFC2B780B2B09
:100C80000DD8DFE813F013001B00B6006301B501B7
:100C90001F0291020C03BD03970409050E006FF0BB
:100CA000030630463C37BD46BDE8F08F9E4B1B889F
:100CB000002B0CBF012302232B70DFE7DFF86C82CF
:100CC000DFF86C9298F80060DFF85CB20B367600C3
:100CD000731D03F4FF633046EA46ADEB030DC7F81E
:100CE00004D00AF003FF48F244133B8499F8003023
:100CF00087F822308F4B1B88BB844FF6FF73FB8431
:100D0000BBF800303B85694607F120000AF003FF7D
:100D1000894A0023BB82BB7513680133BB616946F6
:100D200007F1140013600AF08DFE844B98F8000060
:100D30001988DFF80CC28DF811000B0A0DEB400288
:100D40008DF813308DF812106B463A60E6463A681B
:100D5000934226D1BBF80020002398420ADD3CF8DC
:100D600002EB964524D177484FF0020C80F800C082
:100D700075480370914208BF724B786808BF012222
:100D8000314608BF1A700AF0B5FE002001F002F9E2
:100D9000FFF728FF064668B100232370D5460123DC
:100DA0008AE73EF8022B1A75120A5A750233CEE70B
:100DB0000133D2E70AF078FE524BC3E9000199F8FB
:100DC0000030013389F800305E4B1B78D54613B9EB
:100DD00098F800307DE0012B05D101232370032317
:100DE0002B7000264AE7022BFBD10123237004233A
:100DF000F6E7002100200AF089FE002001F012F938
:100E0000FFF7BCFEE846064600286ED10AF02EFE2B
:100E10003C4BC3E900010AF073FEC31D23F0070336
:100E2000ADEB030D014668460AF06DFE694607F119
:100E300020000AF087FE3A8C48F244139A4258D1B7
:100E40003C4BBA8C1B889A4253D1FA8C4FF6FF73F5
:100E50009A424ED13B8D002B4BD1694607F11400CD
:100E60000AF0D9FD7B6933F07F433CD1324BBA693C
:100E70001A602E4A9DF81130137031492F4ABDF87F
:100E800012E0A2F800E0894605AA3046984202F135
:100E9000020207DB244A128896451FD1294A012104
:100EA000117012E012F801AC12F802CC4CEA0A2CD4
:100EB00029F802CB0130E9E731F8020B82420CD16C
:100EC000204A02211170204A16701E4A1278C54627
:100ED00092B9033323700A2382E70136B342EBDC75
:100EE000184A0021DCE70226C546002323700223AE
:100EF000E2E60126C546F8E7012A3FF46EAF022A72
:100F000072E700BF2023002064270020652700200F
:100F1000C8220020182300201023002008230020CE
:100F2000C0220020802200205E270020EF21002028
:100F30006827002060270020382500205C2700203B
:100F40004C27002067270020662700201320DFF8A9
:100F500020820AF0CBFD48F24413BB8298F800309F
:100F6000BB75844B1B883B834FF6FF737B83824B9F
:100F70001B88BB8307F1200107F114000AF0CBFDA9
:100F80000023BB817D4B01261B683B61BE7307F1CB
:100F9000200107F10C000AF055FD132107F1200094
:100FA0000AF0A8FD764A20787649D2E90032A0FB03
:100FB0000101C01841EB0201734B20F4FF7001F0F6
:100FC000FF0120F00100C3E900010AF08AFD30466C
:100FD00000F0E0FFFFF706FE0646002862D198F811
:100FE0000030013388F80030022323700623F7E62F
:100FF000664800210AF08AFD614A2378D2E900019F
:10100000634A801802F1B66203F1FF3341F1000137
:1010100002F5D022C3FB02010AF063FD012001F0BA
:1010200001F8FFF7ABFDE846064600283AD10AF082
:101030001DFD584BC3E900010AF062FDC31D23F0FA
:101040000703ADEB030D014668460AF05CFD6946F7
:1010500007F120000AF076FD3A8C48F244139A42D8
:101060002DD1444BBA8C1B889A4228D1FA8C4FF66A
:10107000FF739A4223D1484B3A8D1B889A421ED166
:10108000694607F114000AF0C6FC7B6923F07F4330
:10109000B3F5803F04D1394BBA691B689A4207D037
:1010A0000226C5463D4B1B78033323700A2303E613
:1010B0003B4B1B7802332370C546052390E601267F
:1010C000C546EFE71320DFF8A8800AF00FFD48F2CD
:1010D0004413BB8298F80030BB75264B1B883B83BA
:1010E0002D4B1B887B83244B1B88BB8307F120017E
:1010F00007F114000AF00FFD0023BB810223BB732C
:101100001E4B1B683B6107F1200107F10C000AF040
:1011100099FC132107F120000AF0ECFC184A207812
:101120001849D2E90032A0FB0101C01841EB0201CD
:101130001C4B20F4FF7001F0FF0120F00100C3E917
:1011400000010AF0CEFC012000F024FFFFF74AFD69
:10115000124A064648B998F80030013388F8003042
:1011600013780233237008233AE613789CE700BF14
:1011700068270020602700205E27002038250020F7
:101180002023002020000B131823002000006D0BEB
:101190002080540D102300205C270020EF21002028
:1011A0006627002008230020884800210AF0AEFCB2
:1011B000874A2378D2E90001864A801802F1B66294
:1011C00003F1FF3341F1000102F5D022C3FB02011C
:1011D0000AF087FC012094F8008000F023FFFFF75D
:1011E000CDFCE9460646002843D126780AF03EFCAD
:1011F000794B023E03EBC603C3E900010AF080FC11
:10120000C31D23F00703ADEB030D014668460AF04A
:101210007AFC694607F120000AF094FC3A8C48F207
:1012200044139A4231D16D4BBA8C1B889A422CD10F
:101230006B4BFA8C1B889A4227D1A8F10208694BA4
:101240003A8D5FFA88F833F818309A421DD1694612
:1012500007F114000AF0DFFB7B6923F07F43B3F54D
:10126000003F14D1604BBE691B68F61A18BF0126F7
:1012700076005E4A237812780133DBB2511C994222
:10128000CD46237005DB062316E50126F1E702268D
:10129000EFE7023293427FF4F1AC07230CE5DFF86D
:1012A0004C81DFF84C9198F800309B0003F11B0251
:1012B000203303F4FF631046EA46ADEB030D7A607A
:1012C0000AF014FC48F244133B8499F8003087F884
:1012D0002230424B1B88BB844FF6FF73FB84404B8C
:1012E0001B883B85694607F120000AF014FC0323A4
:1012F000BB753D4B00261B68BB61694607F11400B6
:10130000BE820AF09FFB3B4BDFF8CCC01B688DF818
:101310001130190A8DF81210190C8DF813101B0ECC
:1013200098F800107A688DF81430EB460DF115002E
:101330008E4200F1040032DB23782F48A3FB003CEF
:101340002348D0E900609B194CEB00002B4E23F49E
:10135000FF730BEB810123F0010300F0FF00C6E9EE
:10136000003000204875180A8875180C1B0E0B7683
:10137000C875114658460AF0BDFBD6E900010AF0CF
:10138000B0FB012000F006FEFFF72CFC0646C8B9B2
:1013900099F80030013389F80030D54618E5DCF8BB
:1013A000003000F8043C4FEA132E00F803EC4FEA3B
:1013B000134E1B0E0CF1080C00F802EC00F8013C77
:1013C0000136B5E7D54698F800306DE600006D0BA4
:1013D000202300202080540DC822002060270020F8
:1013E0005E2700204C27002038250020EF21002018
:1013F000682700201823002020000B13C0220020A3
:10140000AC48DFF8B49200210AF080FBAB4A2378A5
:10141000D2E90001AA4A801802F1B66203F1FF3353
:1014200041F1000102F5D022C3FB02010AF059FB91
:10143000012000F0F7FDFFF7A1FBE8460646002873
:1014400040F0B2800AF05CFBC31D23F00703ADEB54
:10145000030D014668460AF056FB694607F1200075
:101460000AF070FB3A8C48F244139A4240F09F8095
:10147000944AB98C128899F80030914240F09780D4
:10148000F98C4FF6FF72914240F091808E4A398D6F
:101490001288914240F08B80694607F114007B600E
:1014A0000AF0B9FA7A6922F07F42B2F5403F79D169
:1014B000864AB9691268914274D1DDF81120DFF8CB
:1014C00010B2DFF810927B68CBE90026824A1078D0
:1014D0000DEB800E09EBC00C9EF817109EF816A0BD
:1014E000090441EA0A219EF815A09EF818E041EA95
:1014F0000A0141EA0E6149F830100021CCF80410CD
:101500000DEB8301DFF8D4A1CB7D887D1B0443EA7A
:101510000023487D097E034343EA0163CAF8003093
:101520000023CAF804300AF0A1FA6B4A137809EBD9
:10153000C30259F83310DFF8A8918446D8005368E5
:101540000B4308D1814400220023C9E900235A4BF0
:10155000C5461B78BDE4634ADBF80030D2F800E0F2
:10156000614A1268CB1ABCEB0E0CBEEB020EDAF825
:101570000020521AAEFB02AB8144A3FB0C01B0EB7E
:101580000A0061EB0B019A18764112EB0E0246F14C
:10159000000312EB0C0243F10003FFF7FBF8C9E96B
:1015A0000001D4E70226C54699F800307CE5012603
:1015B000C546F9E74D4B1B78022B7FF477AD3E4BC8
:1015C000DFF814A11B789AF80010227803330B443B
:1015D0009A427FF46BAD1720DFF814910AF086FA77
:1015E00048F24413BB8299F80030BB75354B1B8819
:1015F0003B834FF6FF737B833E4B1B88BB8307F116
:10160000200107F114000AF086FA0023BB810423AD
:10161000BB732E4B1B683B6107F1200107F10C00E7
:101620000AF010FA9AF800202D4B53F8323087F860
:1016300031301A0A87F832201A0C1B0E87F8332033
:1016400087F83430172107F120000AF053FA1B4ABB
:1016500020782949D2E90032A0FB0101C01841EBF2
:10166000020120F4FF70C9B220F001000AF039FA3B
:10167000012000F08FFCFFF7B5FAE846064620B9D6
:1016800099F80030013389F800302378C5460133DA
:101690000BE50923FFF710BBDFF81CA021789AF8AF
:1016A0000030032202EB4302914227D10B23FFF7C4
:1016B00097BB00BF00006D0BEF210020202300200E
:1016C0002080540D602700205C2700203825002052
:1016D00018230020C822002066270020C0220020F6
:1016E00080220020082300201023002067270020EC
:1016F000682700205E27002020000B133C4A127848
:10170000022A05D13B4A1278033313449942C0D0D0
:10171000394800210AF0FAF9384A2378D2E9000161
:10172000374A801802F1B66203F1FF3341F100013C
:1017300002F5D022C3FB02010AF0D3F9012094F88C
:1017400000809AF800A000F06DFCFFF717FAE94658
:101750000646002842D10AF0D3F9C31D23F007033F
:10176000ADEB030D014668460AF0CDF9694607F175
:1017700020000AF0E7F93A8C48F244139A4233D138
:10178000204BBA8C1B889A422ED1FA8C4FF6FF73ED
:101790009A4229D1A8F10308A8EB0A081A4B3A8DFE
:1017A0005FFA88F833F818309A421DD1694607F17C
:1017B00014000AF030F97B6923F07F43B3F5802FE2
:1017C00014D1124BBA691B689A420FD1104BDDF845
:1017D000111043F8381003EBC80256602378013328
:1017E000CD462370FFF74ABA0126F7E70226F5E750
:1017F000672700206627002000006D0B20230020B3
:101800002080540D602700204C2700203825002020
:10181000802200204FF6FF7398421DBF024B1880B4
:1018200000206FF0020070475E2700204FF6FF7324
:1018300098421DBF024B188000206FF002007047D5
:10184000602700204FF6FF7398421DBF024B18809F
:1018500000206FF0020070475C2700204B1E072B12
:1018600010B516D800234FF6FF7230F8134094429B
:101870000FD001339942F8DC074B084A1970002356
:1018800030F8134022F8024B01339942F8DC002073
:1018900010BD6FF00200FBE7EF2100204C27002075
:1018A00030B5124B1B680360114BD3E90023C0E92C
:1018B0000223104A00F1200300F16001F2E8024522
:1018C000E3E902458B42F9D10B4B0C4A1B78837438
:1018D0000B4B1B88038200F11203223032F8021BEB
:1018E00023F8021F8342F9D130BD00BF3825002004
:1018F0002023002080220020EF2100204C27002000
:101900005C27002037B500F095F900F0CBF900F026
:10191000B1F91E4800F098FA00F0B0FB0028FBD0A7
:10192000002000F0D5FA044678B900F0C1FA184B4F
:101930001860184B98420DD0174B0344102B04D855
:10194000164A22FA03F3DB0704D44FF0FF34204693
:1019500003B030BD012201A9062000F0D7FB104BD7
:10196000019A1A600F4D012201A90D2000F0CEFB53
:10197000019B2B60012201A90E2000F0C7FB0A4B3E
:101980002A681A60019A5A60E1E700BFC8D90000CE
:10199000442500200203CADEFCFC35210140010081
:1019A000402500203C2500202823002010B53E4B78
:1019B00000F10C02194650F8044B43F8044B9042D6
:1019C000F9D102881A8082789A708B79022B13D011
:1019D000102B14BF08201020B1F801303F2B4ED03F
:1019E00016D8082B41D009D8032B26D0072B37D087
:1019F00004224FF4805323E01020EDE70F2B39D061
:101A00001F2BF5D10123CB7010224FF4807317E008
:101A1000FF2B40D009D87F2B37D0BF2BE8D1022332
:101A2000CB7020224FF4C0630AE040F2FF129342D1
:101A3000DED10223CB702022DBE7CB7004222023EF
:101A4000013003449B1A18484B8100F04BFA0446BE
:101A500038BB00F0F1FA204600F0FEFA204610BD37
:101A60000323CB7004224023EAE70323CB70042234
:101A70004823E5E70023CB7008228023E0E7022318
:101A8000CB7020224FF40073DAE70223CB702022C0
:101A90004FF48063D4E70223CB7020224FF400631D
:101AA000CEE76FF00104D9E7F721002013B5034614
:101AB000002840D1224C2378052B09D12379A3F1AA
:101AC00009020F2A29D8012201A9112000F01EFBCA
:101AD0002378092B09D12379A3F109020F2A23D8EE
:101AE000012201A9132000F011FB019B1BBB2278EE
:101AF000052A4FF0010420D0092A08BF4FF0FE3319
:101B000010483422C0F80130002302704371837101
:101B100000F0F2F9204602B010BD013B072BE4D8DB
:101B2000012201A91020D1E7013B072BDDD80122BA
:101B300001A91220D7E70024E2E74FF0FD33DFE7E9
:101B4000F7210020F0210020F7B5374E374D3060E7
:101B5000286020BB364C2378052B34D12379A3F1A0
:101B600009020F2A28D8012201A91A2000F0CEFA72
:101B70002378BDF80670052B3ED12379A3F1090225
:101B80000F2A32D8012201A91A2000F0BFFA019BC6
:101B900017B99AB2002A41D09BB237602B6000245B
:101BA0002B683068184480B200F0B0F9002000F0D3
:101BB000BFF9204603B0F0BD013B072BD8D8012266
:101BC00001A91B20D2E7092BD2D12379A3F1090265
:101BD0000F2A03D8012201A91C20C7E7013B072BCC
:101BE000C6D8012201A91D20C0E7013B072BCED892
:101BF000012201A91B20C8E7092BC8D12379A3F131
:101C000009020F2A03D8012201A91C20BDE7013BCC
:101C1000072BBCD8012201A91D20B6E744F201031D
:101C200033602B600124BBE7C0200020C4200020CB
:101C3000F721002010B50C4C0C4820600BF077FB0E
:101C400078B1206802698168136823F0007313601B
:101C50000B68074A19219847002818BF6FF0010048
:101C600010BD4FF0FF30FBE74825002020D70000D3
:101C70000600020070B50A4E0021306809F070FFBE
:101C8000A4240025294620460BF00CFC30680121D5
:101C900009F066FF204629460BF004FC002070BDC9
:101CA0004825002038B5194B194818600BF03FFB48
:101CB00018B94FF0FF34204638BD164D164828603D
:101CC0000BF035FB0028F4D028680269816813689E
:101CD00023F0400313600B684FF40032062198474D
:101CE000044680B90121286809F062FF0B4B0C49BA
:101CF00019604FF480729A800A4B9A800A4A1A60DF
:101D00000A4A1360D7E76FF00104D4E77C2500206E
:101D100060D700007825002000D70000642500204F
:101D200080841E005025002000127A004C250020DF
:101D3000014B024A1A6070474C25002064250020A0
:101D4000014B024A1A6070474C25002050250020A4
:101D500070B588B0CDE904320F4C0CAB069302ABE2
:101D6000CDE902100093206803230125002101938F
:101D7000079509F01DFF094B1868094B196883681E
:101D80006A461E680023B0472068294609F010FF04
:101D9000002008B070BD00BF782500207C25002001
:101DA0004C25002030B50F4C87B0CDE9043202AB92
:101DB000CDE902100093206802230021019309F06D
:101DC000F7FE094B1868094B196883686A461D6855
:101DD0000023A8472068012109F0EAFE002007B08F
:101DE00030BD00BF782500207C2500204C25002038
:101DF000F0B5124D8BB0CDE90832002406ABCDE929
:101E00000010CDE9064004932868CDF808D00223DD
:101E1000214601260593039609F0CAFE084B18686F
:101E2000084B1968836802AA1F6804ABB847286882
:101E3000314609F0BDFE20460BB0F0BD78250020EC
:101E40007C2500204C25002073B5044618B94FF0BE
:101E5000FF3002B070BD0368134A144D002B08BF59
:101E6000134642681A6082685A602B6090470023CC
:101E70008DF803302B681B6804221E680DF10301E6
:101E800001AB0120B047E368227C019E03EB820294
:101E90009342DCD053F8041B08684C687040204023
:101EA000F6D12B689960D4E7842500208025002096
:101EB00013B5064B186883681B6900221C6B0192DE
:101EC00001AB1146A047019802B010BD802500204B
:101ED000034B0146186882681269926A104700BF76
:101EE00080250020034B0146186882681269126839
:101EF000104700BF80250020034B01461868826808
:101F00001269D269104700BF8025002013B5074B26
:101F1000ADF80600186883681B6900221C6B1B2142
:101F20000DF10603A04702B010BD00BF80250020C0
:101F300013B5074BADF80600186883681B690022CB
:101F40001C6B1D210DF10603A04702B010BD00BFA0
:101F50008025002030B41346054A05461068826883
:101F6000126954680A46A446294630BC604700BF3F
:101F70008025002030B41346054A05461068826863
:101F8000126994680A46A446294630BC604700BFDF
:101F90008025002013B5074B8DF80700186883686B
:101FA0001B6900221C6B04210DF10703A04702B03E
:101FB00010BD00BF8025002013B5064B01901868A6
:101FC00083681B6900221C6B052101ABA04702B08E
:101FD00010BD00BF8025002010B4054A03461068DC
:101FE00082681269146B3321A446002210BC60473A
:101FF00080250020034B01461868826812695269E7
:10200000104700BF8025002010B4054B1868836876
:102010001B691C6B0023A4461A4610BC03216047B1
:1020200080250020034B0146186882681269526AB5
:10203000104700BF8025002013B5064B019018689B
:1020400083681B6900221C6B542101ABA04702B0BE
:1020500010BD00BF8025002013B5074BADF806006A
:10206000186883681B6900221C6B52210DF106035E
:10207000A04702B010BD00BF8025002013B5084B5B
:10208000186883681B6900221C6B8DF807200DF10E
:1020900007035B21A0479DF8070002B010BD00BFF9
:1020A0008025002013B5084BADF80600186883683A
:1020B0001B6900221C6B8DF8042001AB5521A04741
:1020C0009DF8040002B010BD8025002010B5064C1C
:1020D0000346014410468B4200D110BD13F8012B7A
:1020E0004240A05CF7E700BFBADC000030B4134602
:1020F000054A0546106882681269D4680A46A446F3
:10210000294630BC604700BF802500201FB5084B22
:10211000ADF8040018688DF80C20836802911B69E3
:1021200000221C6B692101ABA04704B010BD00BFA9
:102130008025002013B5064B0190186883681B6941
:1021400000221C6B792101ABA04702B010BD00BF7B
:102150008025002013B5064B0190186883681B6921
:1021600000221C6B7A2101ABA04702B010BD00BF5A
:102170008025002013B5064B186883681B69002270
:102180001C6B019201AB7B21A047019802B010BDEE
:102190008025002013B5064B186883681B69002250
:1021A0001C6B019201AB7C21A047019802B010BDCD
:1021B0008025002013B5084B186883681B6900222E
:1021C0001C6BADF806200DF106037F21A047BDF87A
:1021D000060002B010BD00BF802500202DE9FF41A0
:1021E00083688E685F690B6801934B68FC6B029390
:1021F000002202AB52210546A047044640BB95F998
:102200005820AB68002A5B6937DBD3F83C80024674
:1022100003AB5A212846C04778BB039BE6B903F5B8
:10222000783303F52073019332460121284609F0E3
:10223000CDFCFC6B01AB002205212846A0470446DB
:1022400030BB0346FE6B03221F212846B0470446DD
:10225000204604B0BDE8F08101990F480F4AC91A21
:1022600081FB00010023FEF745FAB0F57F7FB8BF80
:102270004FF47F70A0F57F76D6E7FC6B002ED8D1A7
:10228000334632461F212846A04704460028DFD0A7
:10229000284609F0C7FCDBE740420F000098E00E3B
:1022A00070B50E4614461D4630B329B303F0A0FFA7
:1022B00000EBC434304603F09BFFA4EB400042F631
:1022C00085230002B0FBF3F09DF8103005EB4505C7
:1022D0006D02082BADB20CD99DF8141047F6B3036C
:1022E00047F6B312002908BF13462844C01A00B2AB
:1022F00070BD47F2CD13F8E70048F9E70080FFFF13
:102300002DE9F04F85B001F0030401920393019B86
:10231000052BC1F385021BD1B0F5B17FDFF84CE18D
:1023200028BF4FF4B170431D9BB2052800930346AC
:1023300038BF0523053B9BB20428029352D8531C97
:10234000DBB21EF80330053B98424BD2002358E025
:1023500040F231139842DFF818E128BF1846E2E74F
:102360003E5DA0EB030C664504F1010404DA1E4453
:10237000B3B2E5B2012DF3D900244FF0810C26460B
:10238000A346A046A2464FF00509984233D00CF16F
:10239000FF3C1CF0FF0C5FD0029FBB4239D9009F6D
:1023A000BB4222D2C71A002FB8BF7F42BFB24F45EF
:1023B00056D9002E4CD14F46B9463F2A3FD1002E68
:1023C00046D1032D0CD0022D02D1019C092C07D03F
:1023D000284C645D1C4401358442A3B2EDB221DC7B
:1023E0003F2208E0234F0023C3E7BEB11EF80220BE
:1023F0009B1A9BB2424645EA8205EDB24FF001318D
:10240000694300200E9A1380039B196005B0BDE854
:10241000F08F002EEAD1009FBB42CED3002CEAD031
:102420003F2ACED000261EF802401C1BA3B2541E29
:1024300004F03F0214F03F0418BF0124A5E7002C6C
:10244000F1D10132D2B21EF802701F44BBB29CE738
:102450005D4642465346CEE763464FF0FF30D1E734
:10246000AB4690469A460126A6E700BF49DF00002A
:1024700009DF000089DF0000AE29024818BF0020F4
:10248000704700BFE425002013B54FF4C073044625
:10249000009309494FF6FF73002209F0FBFCE36D3E
:1024A00006491B7B009300224FF6E073204609F09B
:1024B000F1FC02B010BD00BF08000B001F001100AE
:1024C00007B5012300930449FF23002209F0F4FC1F
:1024D00003B05DF804FB00BF0400020007B5002252
:1024E00003490092EF2309F0E7FC03B05DF804FB19
:1024F00024000F0037B50A4D02222946044609F090
:1025000021FD00F00F0303330F2B28BF0F2300938F
:102510000222F0232946204609F0CEFC03B030BD4C
:102520004000070008B50349032209F00BFDC0F382
:10253000021008BD6000030070B54E7D05460C46D4
:102540006EBB3F49324609F0E3FCC0F30B003D4946
:1025500020603246284609F0DBFCC0F315003A49FA
:1025600060603246284609F0D3FCC0F315003749B5
:10257000A0603246284609F0CBFCC0F31500E060AD
:1025800033493246284609F0C3FCC0F310002061ED
:102590002846FFF7C7FF20750020C0B270BD012E8E
:1025A00027D12C49002209F0B3FCC0F30B002A49C3
:1025B00020600022284609F0ABFCC0F31500274933
:1025C00060600022284609F0A3FCC0F31500A0605B
:1025D00000224FF45021284609F09AFC2049C0F30C
:1025E0001500E0600022284609F092FCC0F31300B9
:1025F000CDE7022E21D11B49002209F089FCC0F34E
:102600000B00194920600022284609F081FCC0F324
:102610001500164960600022284609F079FCC0F3D5
:1026200015001349A0600022284609F071FCC0F390
:1026300015001049E0600022D5E74FF0FF30ACE70D
:1026400058000C0030000C0034000C0038000C0066
:102650002C000C0020000D0064000C0068000C0031
:1026600060000C0068000D0040000D0044000D00EB
:1026700048000D003C000D0037B5CB074CBF0023D0
:10268000102304464BBF00930093EF23FF230D4616
:1026900002224FF4602109F00FFCE36D9D77E36D9A
:1026A0009A7F52080BD10A490123204609F08EFE79
:1026B000E26D937F43F00203937703B030BD04498A
:1026C0006B080022204603B0BDE8304009F07EBE12
:1026D00028000100C26D01F03F035375014900223B
:1026E00009F074BE14000900002370B51A464FF4B7
:1026F0002021044609F076FE00230A4D0A491A46B5
:10270000204609F063FE00231A462946204609F0B8
:102710005DFE294620460223BDE87040002209F0F4
:1027200055BE00BF04000A0014000A0070B50D4E2B
:1027300004460D4601233146002209F053FE2B4684
:1027400020460949002209F04DFE3146204600226C
:10275000022309F047FE20460449BDE870400022EC
:1027600009F0D6BB08000B0004000B0010000B00A2
:1027700038B50D4D04460B4600220C4909F032FED7
:10278000294620468823002209F020FE00231A460D
:102790002946204609F01AFE20460549BDE8384082
:1027A000002209F0CFBB00BF04000A000C000A00A1
:1027B00008000A0070B5CBB205460C461646104913
:1027C000002209F00FFE334628460E49002209F088
:1027D000FDFDFF2C98BF00230B4C88BF01235B013C
:1027E0002146284643F09003002209F0EFFD002324
:1027F000214628461A46BDE8704009F0E7BD00BFF3
:102800000C000A0010000A0004000A0070B504461B
:1028100016460D46002240F20B11FFF7CBFF4FF496
:1028200082712046FFF7A4FF4FF4827100F01F026F
:102830002046FFF7BFFFE36D1A8B15431D83E36D41
:1028400020461B8B00224FF4202109F0CBFD33469C
:1028500020460349BDE87040002209F0B7BD00BF23
:1028600014000A00012910B504463DD1334918234C
:10287000002209F0B7FD40F2022300224FF430217C
:10288000204609F0AFFD022300224FF430212046FC
:1028900009F0A8FD40F2F33300224FF43021204626
:1028A00009F0A0FD40F2F31300224FF4302120463E
:1028B00009F098FD40F2013300224FF43021204608
:1028C00009F090FD40F20113204600224FF4302120
:1028D00009F088FD20464FF40073BDE81040002247
:1028E0004FF4302109F07EBD40F2022300224FF464
:1028F000302109F077FD022300224FF430212046D9
:1029000009F070FD40F2F33300224FF430212046ED
:1029100009F068FD40F2F31300224FF43021204605
:1029200009F060FD4FF4417300224FF4302120463E
:1029300009F058FD4FF48273C6E700BF08000B0092
:1029400070B5094E0C4600223146054609F0E0FA02
:10295000000D0005C4F3130303433146284600224B
:10296000BDE8704009F06EBD0800010070B500229E
:102970000C464FF4A021054609F0CAFA0A4B034061
:10298000E00748BF43F48023A10748BF43F4104346
:102990006207284648BF43F01203BDE8704000229A
:1029A0004FF4A02109F04EBDC00FE0FF70B50C46FA
:1029B00005460B680B49002209F044FD63680A498B
:1029C0002846002209F03EFDA36808492846002257
:1029D00009F038FDE368064928460022BDE870404A
:1029E00009F030BD0C0002001000020014000200CB
:1029F0001800020070B50C4605460B680B49002212
:102A000009F020FD63680A492846002209F01AFDF2
:102A1000A36808492846002209F014FDE368064926
:102A200028460022BDE8704009F00CBD1C000200E1
:102A300020000200240002002800020005292DE9E0
:102A4000F047044640D1264D264E274FDFF89C80A4
:102A5000DFF89C90DFF89CA0274B284920460022F5
:102A600009F0F0FC534620462549002209F0EAFC13
:102A70004B4620462349002209F0E4FC4346204609
:102A80002149002209F0DEFC3B4620461F49002276
:102A900009F0D8FC334620461D49002209F0D2FC3B
:102AA0002B4620461B49002209F0CCFC20461A4B3D
:102AB0001A49002209F0C6FC2046194B1949BDE805
:102AC000F047002209F0BEBC174D184FDFF86080B8
:102AD000DFF86090DFF860A0184B2E46BDE700BF1E
:102AE000F5CF0100B5CF010036CF01007EC7010050
:102AF000BEC601003EC40100FDC001003800030055
:102B00003C000300400003004400030048000300B1
:102B10004C00030050000300400200101C000300A2
:102B200089A46D1B20000300B5AF02007DAF020039
:102B30003EAF0200FEA5020036AC0200FEA8020075
:102B4000F7B51C46C36D9B7D032B04EB02030F46B8
:102B500014BF4FF490114FF49811B3F5806F0546F0
:102B6000164606DA7F2C06D813460097224609F04F
:102B7000C6F903B0F0BD0B0C0022084909F062FC55
:102B8000074923460022284609F05CFC009733469B
:102B900000224FF4E8112846E9E700BF04001F00B7
:102BA00008001F00002302491A4609F04BBC00BF71
:102BB0000400070037B510230D4600930949FF2391
:102BC0000022044609F078F9022D2B464FF000024E
:102BD00038BF02232C21204603B0BDE8304009F065
:102BE00031BC00BF24000F0073B5274B2749284E86
:102BF0000022044609F026FC102300932349FF23FA
:102C00000022204609F058F90325142008F0CEFFD1
:102C100000223146204609F095F9012831D0013DC6
:102C200015F0FF05F1D16FF0020500231A4620468A
:102C3000164909F0CBFB204615490123002209F073
:102C4000C5FB012300932046FF231049022209F00F
:102C500033F910490022204609F05AF96FF0604616
:102C6000B0420D494FF00002204608BF6FF0030547
:102C700009F04EF9B04214BF28466FF0040002B0CC
:102C800070BD0025D1E700BF010002000C00040068
:102C900020000400140004001C000400012973B586
:102CA000044608D0142008F081FF204602B0BDE899
:102CB0007040FFF799BF1049002209F038F940F23F
:102CC00005130D49009300224FF6FF730646204678
:102CD00009F0E0F8142008F069FF2046FFF784FFB0
:102CE00000220546044900922046334609F0D2F8F6
:102CF000284602B070BD00BF480007002DE9F04F24
:102D000085B0022ABDF838A09DF83C90064688465A
:102D100024D84B4931F812204A4913449BB20393FB
:102D200048F24003009300224FF6FF7309F0B2F817
:102D300045460027574506D2039B03EB070B43F29A
:102D400001039B450CDD3F49002247F6BF73304627
:102D50000E9205B0BDE8F04F09F09CB809F048FFAD
:102D6000AAEB0704A4B2102C37494FF015034FF01B
:102D70000002304628BF102409F064FB5B4633494B
:102D80000022304609F05EFB04EB44035B00304A4E
:102D9000009201339BB200224FF4E81130464FEA13
:102DA000440B09F0ACF8B9F1000F34D07B000022DD
:102DB00027490293104647F6FF7E91F803C08B78AF
:102DC0004FEA0C4C0CEB032C4B786344B3F5802F8B
:102DD000DFF880C0C3F3110338BF4FF0000CB9F126
:102DE000020F43EA0C0324D14CEA5303DDF808C078
:102DF0006044DFF864C06345B8BF63460132734581
:102E000092B2A8BF73465A4528F8103001F1030169
:102E10001046D2D30AE02B460D4A062505FB0435A1
:102E200012F8011F03F8011B9D42F9D13C44A7B2DF
:102E300080E7B9F1030F08BF4CEA9303D6E700BF60
:102E400064DC00000400110004001F0008001F00E3
:102E5000692700200000FCFF0080FFFFF7B51D463A
:102E600048F240031646009300224FF6FF730F46C8
:102E70001849044609F00EF8AA1943F201039A42D0
:102E800025DC7F2D11D8009733462A464FF4A81130
:102E9000204609F034F800220E49009247F6BF732D
:102EA000204608F0F7FF03B0F0BD0B4915230022C0
:102EB000204609F0C7FA09492B460022204609F0AE
:102EC000C1FA0097334600224FF4E811E0E709F019
:102ED0008FFE00BF0400110004001F0008001F0047
:102EE000F7B51C460B44B3F5806F06460D461746F2
:102EF0001DDA7F2C09D800920B4622464FF4A01110
:102F000009F05AFA002003B0F0BD0A491423002248
:102F100009F098FA084923460022304609F092FA4F
:102F200000972B4600224FF4E8113046E8E74FF0B7
:102F3000FF30E8E704001F0008001F00F0B50C4652
:102F400087B0E37CFF2B054600F0F1802368002A60
:102F500040F0928000930C23784909F02DFA237BEE
:102F6000E189A27C1944002A40F0BF80207CE27CE9
:102F7000002840F0B280C2F17D02914200F2BF8091
:102F80004FF4B0166268009231460022284609F0DC
:102F900013FAA3680093E389227B3146284609F09F
:102FA0000BFA227C531E012B05D8EB6D9B7D032B66
:102FB00014BF01220222637C591E012900F2A6805F
:102FC000EB6D9B7D032B14BF0123022342EA4333A5
:102FD0005B495C4E0022284609F034FAE3895A4ADC
:102FE0005A4902EAC312237B03F07F0313432846A6
:102FF000002209F027FA564901230022284609F049
:10300000E5F900223146284608F09CFF10F0050F34
:103010000746F6D003464B490022284607F03F06F4
:1030200007F00F0709F0D2F9012F22D1A37C012B61
:103030001FD1637C5A1E012A72D8EB6D9B7D032B36
:1030400014BF4FF490174FF4981762683AB1237B7E
:103050002BB1009239460022284608F050FFA268A2
:103060003AB1E3892BB10092227B3946284608F019
:1030700046FF70B207B0F0BD9A7A8DF808205A7AF0
:103080008DF809201A7A8DF80A20DA798DF80B204C
:103090009A798DF80C205A798DF80D201A798DF8CF
:1030A0000E20DA788DF80F209A788DF810205A7853
:1030B000E1898DF811201A78ADF81410197B8DF87C
:1030C000122000228DF813208DF81610DB7A8DF86F
:1030D000173002AB009310233EE7C2F57F72023235
:1030E00091420CD84FF4A0164CE7012A22D1627C01
:1030F000E37C3AB9C3F17D0399427FF652AF4FF0BA
:10310000FF30B7E7C3F57F730133F5E7042B7FF496
:103110005DAFE18910297FF659AF6FF00300A9E791
:10312000032B14BF4FF4B0174FF4A0178DE76FF0C7
:1031300002009FE76FF001009CE700BF3400010030
:10314000440001005000010080FF01004800010020
:103150004C0001002DE9F0414C4CC46502220023D3
:1031600022830E4681220421A383E38284F8303037
:10317000E3812282A3740546FFF7D8FA0521804631
:103180002846FFF7D3FA0A2107462846FFF7CEFA6A
:103190003B0E03F03003C7F30352C0F30440134364
:1031A00020736DD06374B8F1000F05D027B1237B75
:1031B00013B12846FFF768F920212846FFF7B6FA31
:1031C000334BC71A78427841F306607304D5062161
:1031D0002846FFF7ABFAA060B1060AD50D212846B4
:1031E000FFF7A4FA0E2107462846FFF79FFAC4E925
:1031F0000070720605D508212846FFF797FA000CE3
:10320000A073330604D509212846FFF78FFAE0732F
:10321000E37B0BB98523E373A37B0BB97423A373FF
:103220001F212846FFF782FA1E2120752846FFF746
:103230007DFA10F03F0308BF2E2316496375002264
:10324000284609F0C3F835212846FFF76FFA0346F0
:1032500020B111490022284609F0F4F80F4B10491B
:103260002846002209F0EEF800221021284608F036
:103270004FFEC0F3800084F830000020BDE8F081EC
:103280004FF48670FEF70EFFA0748CE73023002009
:1032900040020010140009000400090067070E0432
:1032A0001800070007B5012A1BBFC943002200917F
:1032B0008BB208BF4FF6FF73044914BF009200227F
:1032C00008F0E8FD03B05DF804FB00BF0C0005004A
:1032D00007B5C36D9B7D0091012B0BD0032B4FF0E5
:1032E00005030BD104224FF4F01108F008FE03B0DF
:1032F0005DF804FB034905230022F6E70022642160
:10330000F3E700BF0400180002494FF400730022E5
:1033100009F068B80400110070B500222C210446A1
:1033200008F0F6FD064905460122204608F00AFE8F
:1033300000222B1A2C212046BDE8704009F082B8EB
:1033400004000100002370B51A460D460A490446E0
:1033500009F078F800231A464FF4E021204609F0DE
:1033600071F845B120460549BDE870404FF0E05383
:10337000002209F067B870BD48000700140007007C
:1033800073B54EF204130D4600222849044609F095
:1033900059F84DB900952B462A460221204609F0DE
:1033A0000BF8002002B070BD25F00206082E35D0C3
:1033B00006DC012E0ED0042E2BD04FF0FF30F1E7AB
:1033C000102EFAD12046FFF7A7FF002300931A46DC
:1033D000062103E0002300931A460421204608F04A
:1033E000EBFF03224421204608F0ACFD0307D8D5AB
:1033F000002300931A461946204608F0DDFF15F019
:103400000203DAD100931A460221204608F0D4FFC5
:10341000D3E7002300931A460A21DFE7204609F08C
:1034200048F8002300931A463146D7E710000900F8
:1034300011F01D03F7B5054601F0020453D011F059
:10344000010725D0FCB1002300931A460D2108F096
:10345000B3FF03224421284608F074FD10F008024F
:1034600006D12E49284608F053FDB0F5502F43D120
:103470000023284600931A46194608F09DFF4FF096
:10348000FF3003B0F0BD0094234622460321DEE75F
:1034900011F008060DD009F00CF82CB100973B464E
:1034A0003A460F212846D2E70094234622460721B8
:1034B000F8E711F010030CD0FFF72EFF24B10096AF
:1034C000334632460E21EDE700942346224605217D
:1034D000E8E71CB100931A461021B8E70094234690
:1034E00022460921B3E711F020010CD034B100933A
:1034F0001A46112108F060FF0020C2E7009423461D
:1035000022460B21F6E724B100910B460A460C2116
:10351000F0E70094234622460121EBE730000F003C
:1035200010B5C36D9B7D012B044613D0032B1AD11C
:1035300010490022F02308F049FF00224FF4F01157
:10354000204608F0F4FCE36DDA7C7AB900F07F00E5
:10355000D88410BD074900220F2308F037FF00224E
:103560004FF4C011ECE700224C21EAE7C0F3090058
:10357000EEE700BF240001002DE9F04100224FF4E6
:10358000F811044608F0DEFC0022442106462046DD
:1035900008F0BEFC05462046FFF7C2FFE36D00229F
:1035A000C3E90822DA6283F82820E36DDC62E36D68
:1035B0001D62E36D5A7F02F00302032A074604D11D
:1035C000A90444BF46F00806F6B26A0542BF93F864
:1035D000282042F0040283F8282030062FD500224C
:1035E00048212046D4F85C8008F0A1FCA8F824000B
:1035F000E36D1A7F12B11A6A510703D49B8C03F44E
:1036000060638BB1042300224421204608F0DEFED3
:103610004FF4606300224821204608F0E3FEE3698E
:1036200013B1E06D20309847E36D9B8CDA0506D529
:103630004FF4807300224821204608F0D3FEF307A0
:1036400011D57D494EF204130022204608F0FAFEFF
:10365000F82300224421204608F0B8FEE36813B1A5
:10366000E06D2030984770060BD5636A13B1E06DAA
:10367000203098474FF4C07302224421204608F0BE
:10368000B1FE290406F0080305D527B994F83C20BB
:10369000D20700F1A180002B7AD04FF00008E36D33
:1036A000002283F82820E36D9B7DABB1634920465F
:1036B00008F048FCE36D9B7D032B08BFC0F30710A7
:1036C000C70748BF45F48045810748BF45F400550A
:1036D000420748BF45F48065E36D15F480271D62FD
:1036E0007DD0E26D92F8283043F0080382F828304C
:1036F0004FF48027E80008D5E26D92F8283043F0B7
:10370000100382F8283047F08057B8F1000F07D136
:10371000A9046ED5E36D5B7F03F00303032B68D12F
:10372000E26D92F8283043F0020382F82830E36D0E
:103730000022DA84442147F46F43204608F082FED9
:10374000B8F1000F70D1E36DDA8C002A6CD15A7F8A
:1037500002F00302032A67D01A6A22F490421A6226
:10376000E26D136A43F480531362A36913B1E06DF1
:1037700020309847E36D002283F82820E36D9B7D7D
:1037800013B1204608F04DFEE36D002283F8282097
:10379000F2060ED52A4B00224421204608F052FEA4
:1037A000A36913B1E06D20309847E36D002283F8E0
:1037B0002820B3060ED5234B00224421204608F0D2
:1037C00041FE636913B1E06D20309847E36D00223C
:1037D00083F82820BDE8F0814FF001085FE76B0512
:1037E00041BFE26D92F8283043F0040382F828309C
:1037F00080E715F4804207D1E36D93F83030012B58
:1038000002D047F4DE430AE02046FFF789FEE36D6D
:1038100093F83020002AF4D047F46F43002244216B
:10382000204608F00FFE8EE72369002BA6D0E06D3E
:1038300020309847A2E700BF1000090024000100D3
:1038400000B4053400042210024941F6220300228C
:1038500008F0C8BD0400110070B5042304460D46ED
:103860000022294908F0B2FD28490022204608F02C
:103870004FFB264902234FF0FF320646204608F050
:103880002DFE2D03204900236FF4C002204608F0CE
:1038900025FE45F0200300224FF40021204608F0C9
:1038A000D1FD01236FF001024FF40021204608F002
:1038B00015FE174D00222946204608F029FBC307B4
:1038C000F8D500224FF00811204608F030FB002305
:1038D00005461A4620464FF4002108F077FD0023E4
:1038E0001A462046084908F071FD3346204607492C
:1038F000002208F0A7FD2046034900236FF4C00210
:1039000008F0ECFD284670BD3400070048000700B1
:103910000400080073B511F0010605460C4625D0D9
:103920004FF410736FF47C624FF4A02108F0D6FDC1
:103930004FF0FF3216494FF40403284608F0CEFD3D
:1039400014F0020208D14FF488731249284602B0DD
:10395000BDE8704008F076BD0F4B0E4900222846A6
:1039600008F070FD4FF488730022EEE733466FF4E1
:103970007C624FF4A02108F0B1FD064900964FF695
:10398000FF633246284608F085FA02B070BD00BFDA
:10399000040011001600110010010F002DE9F0477E
:1039A000564FDFF85C910D46164639460022044614
:1039B00008F0AEFA394680464FF4704320464FF087
:1039C000FF3208F08BFD182300224946204608F0FC
:1039D00009FD2046252108F010FD2046022108F0AF
:1039E0000CFD20464FF4FE7108F007FDF1B22046B1
:1039F00041F4807108F001FD20464FF4807108F019
:103A0000FCFC2046002108F0F8FC2046022108F0CA
:103A1000F4FC20464FF4E07108F0EFFCE9B22046D8
:103A200041F4807108F0E9FCC5F30721204641F418
:103A3000807108F0E2FCC5F30741204641F4807133
:103A400008F0DBFC290E204641F4807108F0D5FC1B
:103A50002046002108F0D1FC20463A2108F0CDFC98
:103A6000204640F2FF1108F0C8FC20464FF4857153
:103A700008F0C3FC2046002108F0BFFC20463A2194
:103A800008F0BBFC204640F2011108F0B6FC2046CD
:103A9000022300224FF4302108F0A4FC00231A4630
:103AA0004FF43021204608F09DFC022008F06BF80E
:103AB00020463A2108F0A1FC20464FF4817108F01D
:103AC0009CFC2046022300224FF4302108F08AFC9F
:103AD00000231A4620464FF4302108F083FC0023CF
:103AE0001A464946204608F07DFC434639462046A2
:103AF0000022BDE8F04708F0A5BC00BF4400070065
:103B000008000B0070B54FF0082304460D464FF037
:103B1000FF320E4908F0E2FC0C494FF060134FF001
:103B2000FF32204608F0DAFC094B4FF0FF324FF429
:103B3000E021204608F0D2FC3DB12046054B064965
:103B4000BDE87040002208F07DBC70BD4800070051
:103B5000003C00020011010114000700012937B5E3
:103B600004460D4616D1FFF7CFFB204625494FF4FA
:103B700080734FF0FF3208F0B1FC204622490095D7
:103B8000FF232A4608F098F9204603B0BDE83040EC
:103B900008F0E4B902291CD103231C490093002238
:103BA000FF2308F089F918494FF400036FF480727D
:103BB000204608F093FC00230093204612497F23FF
:103BC0002A4608F079F92046FFF79EFB002003B053
:103BD00030BD012300930D49FF23002208F06CF94A
:103BE000204609494FF400036FF4807208F076FC18
:103BF0000023009304497F230222204608F05CF949
:103C0000E4E700BF080009000800110004001100EB
:103C1000F7B504460D460222584908F093F9E36DC2
:103C2000DB7DAB42064602D1032800F0A480544954
:103C30000022204608F06CF9092D20F0010308BF8E
:103C400043F001034E490022204608F0FBFB032EFF
:103C500003D102212046FFF781FF092D4FD1494BA7
:103C600049490022204608F0EDFB40F63C73002253
:103C70004FF41021204608F0B5FBE36DDB7D092BE6
:103C80000CD004212046FEF751FDC0F30740009000
:103C90003E49F0230222204608F00EF93C493D4FF0
:103CA00014230122204608F091FB3B490E230222F7
:103CB000204608F08BFB374981230022204608F07C
:103CC00085FB022300224421204608F07FFB0121CE
:103CD0002046FFF743FF0026204608F03FF950B189
:103CE00002212046FFF73AFFC0B2F6B1E36D002291
:103CF000DA756FF00100E36DDD7503B0F0BD274BA1
:103D000021490022204608F09DFB41F63C73002229
:103D10004FF41021204608F065FBE36DDB7DAB42DC
:103D2000BCD02046FEF7E6FBB8E7032803D102210A
:103D30002046FFF713FF092D0CBF40F6397341F6FB
:103D4000397300224FF41021204608F04BFB4FF44A
:103D500000234FF0FF323946204608F0BFFB022314
:103D600000224421204608F031FB01212046FFF7C4
:103D7000F5FE0126B0E70020BFE700BF30000F00CE
:103D8000140001003400011C1C0007004000070063
:103D90005000070008000900180007003411071C34
:103DA0007F2A10B541EAC323044607D843EA0243F9
:103DB000BDE81040094A242108F090BB803243EA54
:103DC00002432421054A08F089FB20460022BDE871
:103DD00010404FF4002108F0B5B800BF00F400FC1B
:103DE000024B03494FF0FF3208F078BB003C000261
:103DF0000400070073B504460D46FFF725FD0021BA
:103E00002046FFF77FFE2046FFF7EAFF1549164ED2
:103E1000C5F30B030022204608F0E4FA03230093C5
:103E20001149FF230022204608F046F800223146BF
:103E3000204608F087F810F00105F7D12046FEF77C
:103E4000B1FE29462046FFF77DFA2046FFF75CFACF
:103E500006492A46204608F075F800F03F0002B0F7
:103E600070BD00BF1C000800100008001C00070007
:103E700070B5B1F8052005460C4662B90B780849C3
:103E800008F0A4FAD4F80130064928460022BDE81B
:103E9000704008F0D7BA1146FFF7ACFFF2E700BF59
:103EA0001C0007000C000100052905D1402305492D
:103EB0006FF4005208F012BB092902D14FF40153EC
:103EC000F5E7704708000B0038B504460D460021A1
:103ED000FEF7C8FCE36D1B7B13B12046FEF7D4FA56
:103EE000344914230122204608F070FA324918237D
:103EF0000022204608F0A6FAE82330490022204696
:103F000008F0A0FAE36D1B8B03F0E003602B3ED0BA
:103F1000A02B3FD0202B07D14FF4806328496FF4AA
:103F2000C052204608F0DAFAE36D9A7F520834D185
:103F300001232449204608F049FAE26D937F43F0BB
:103F400002039377ADB320490022204607F0EFFF2C
:103F5000C307054628D42046FEF7CCFA0521C5F351
:103F6000C405093D0F2D06D8E36D5B7B012B204670
:103F70001CD1FFF799FF2046144B1549002208F089
:103F800061FA20460121BDE83840FEF787BE4FF4B4
:103F90004063C3E74FF4A053C0E71346094900222A
:103FA000204608F013FACDE70921D8E7FEF746FDD1
:103FB000E1E738BD500007000C001F0010001F0093
:103FC00008000B00280001001400010067070E0420
:103FD0001800070070B5104B0C4615460F49022219
:103FE000064608F02FFA631E0F2DA8BF0F25032BDE
:103FF00028BF04241023E34030460949002208F07A
:1040000021FA631E9B0005FA03F330460549BDE81B
:104010007040002208F016BA1408D20010001100F7
:10402000280007001800080000042DE9F04700F4FC
:104030007F002E4C40F00703A3424FEA910643D87D
:104040002B4883424DD12B4B462500204FF0FF3AA1
:1040500003F1FF3CD046FF27814607E0BE4502D270
:1040600077464FFA80FA0130854216D01CF8013F9E
:10407000994281EA03044FEA930E2BD0A307F2D1B1
:104080007645EBD3EFD9F14538BF4FFA80F800F110
:10409000010038BFF1468542E8D118EA0A0F20D462
:1040A0005FFA88F8A8EB0A0AA6EB0903A7EB090751
:1040B0005FFA8AFA0AFB03F3FFB293FBF7F3A8EB6C
:1040C00003085FFA88F807E00B48834209D10B4BDD
:1040D0004B25BAE75FFA80F882F800800020BDE83F
:1040E000F0874FF0FF30BDE8F08700BF0100090006
:1040F0000700050080DE000007000900E7DD000082
:104100002DE9F04F87B005AD1446009500220D460D
:104110001E465F49042307F0F2FE9DF817209DF824
:10412000163094F800E094F801C0A078594903EBE8
:1041300002239DF81520E64502EB03229DF814307A
:10414000F04628BFE04603EB02238045E2784FEAC1
:10415000054505F47F0528BF8046904523F4604B54
:1041600045F0070328BF90468B4203951CD84A4967
:104170008B427CD1494B45271D214FF01C09DFF8AC
:1041800020A1C1459AF800501ED3DFF81881002DF8
:1041900077D198F800104FF460454FF000098AF885
:1041A000009088F800902AE03F498B425FD1DFF809
:1041B000F0A03E4B9AF800504FF01009C1454FF067
:1041C0004A074FF01101E0D2DFF8D88088F80010DC
:1041D000002D56D1039DDFF8BC9045F001054D45FB
:1041E0004CD0A9F580294D45314D04BF42272B46BF
:1041F00000258AF8005088F800504FF40055AEEBC7
:10420000010E5FFA8EFEACEB010CBE455FFA8CFC32
:10421000A0EB0100C0B228BFBE46521ABC45D2B2C4
:1042200028BFBC46B84228BF3846BA4228BF3A46E3
:1042300001EB0E0713F80EE0277101EB0C0713F8E2
:104240000CC067711F5C0844A07138049B5C40EA95
:104250000C2040EA0E0040EA03634BEA05051144D6
:104260000020E171C6E9003507B0BDE8F08F4FF0DE
:1042700000094FF0FF3701214B4680E70D4B4D27DA
:10428000B6E700254FF0FF3729462B4685E700BFEC
:1042900010000900010009000700050080DE000091
:1042A000CB270020CA27002007000900E7DD000017
:1042B000C6DE000032DE0000012937B504460D4697
:1042C00001D903293AD12B0410216FF44032204642
:1042D00008F004F9E16D4B7F3BB391F83100194BC5
:1042E000012D33F810309BBF4FF435625A431A0149
:1042F000930C8CBFC2F30A02C2F3CA1202F58062A9
:1043000088BFDB09B2F5006F28BF01334A8E9BB22C
:1043100002EBC00203F07F034A86204600930A495D
:104320004FF68073022207F0B5FD2046074A084980
:10433000942308F0D3F8002003B030BD4FF0FF30D5
:10434000FAE700BF6ADC000012000E0000FFFF3F2A
:1043500016000E002DE9F04F044687B016461D46A4
:10436000B22901F21A85DFE811F0B507BF07B300E3
:10437000B700CB00D3001901F300DB0025012D01AC
:1043800033013A0141014801510154015B01DF0150
:10439000EC01F001F901FD010102040208022D0205
:1043A0003E02480252025B028E0285027C026402D7
:1043B0007002B80275019101A101A801C001F006C7
:1043C000F5069B02C602C902D102D502DF02E8024D
:1043D000F102F802150320032A03920234033C037E
:1043E0004E0368037803B603D303F603FD031304F7
:1043F00004041B0422043904570469047604850468
:104400008C04D504ED04DD04F7041F056C059B0541
:10441000A505B905D705E005E9050E0616061D0632
:10442000250631063D0646064E06560660066A0615
:104430006F068D069706A106AB06C806D206E606ED
:10444000FB0666076F077907C6078207AB071405E7
:104450004B0752075707DB0B26081C08CE07D80767
:10446000E207EC07F60700080A08120863089C0830
:10447000E9080B09A80CBC0C1101350843084E08CB
:104480005908C50C180D180DCA0CF00C140D180D98
:10449000180D180D180D180D180D180D180D180DF4
:1044A000180D180D180D180D180D180D180D180DE4
:1044B0002109180D180D180D8B0BA90B000C100CF1
:1044C0001C0C570CE10BB500710C670C830C7B0CBA
:1044D000436898470020E6E0AA49022207F032FD2F
:1044E0000328F7D907F04CFB00230546009320462C
:1044F0001A46194607F060FF284607F043FBE9E734
:10450000002DE7D0297807B0BDE8F04FFEF790BF47
:10451000002DDFD02B6800222C2107F093FFD9E774
:104520002B689949002207F08DFF6B689749204658
:10453000002207F087FFAB6895492046002207F06C
:1045400081FFEB6893490022204607F07BFFC1E71B
:10455000002DBFD06A682B88032ABBD8DFE802F0A1
:1045600002070C118C49002207F03CFFB2E78A4990
:10457000022207F037FFADE78849002207F032FF3B
:10458000A8E78649022207F02DFFA3E7002DA1D05E
:104590002B688349002207F055FF9BE7002D99D037
:1045A0002B7880495B0003F006036FF0060207F0EA
:1045B00095FF8FE77C494FF480334FF0FF3207F0CF
:1045C0008DFF87E7002D85D0C36D1B7D2B7081E7A4
:1045D000002D3FF47FAFC36D9B7B2B707AE7002DDE
:1045E0003FF478AFC36DDB7B2B7073E7002D3FF496
:1045F00071AFC36D9B682B606CE7002D3FF46AAF11
:10460000C36DD3E90023C5E9002363E707F009FF81
:1046100060E7002D3FF45EAF2968FEF791F959E796
:10462000002D3FF457AF2E786D6866B1402300939C
:104630000022FF23102107F03FFC022E00D125624B
:10464000E36D1E7746E70096BF233246102107F040
:1046500033FCF5E7002D3FF43DAF6E682B785349EE
:10466000032207F0B3FE46B14FF481234FF0FF322F
:104670001021204607F032FF2CE700964FF2FF731F
:1046800032461021204607F005FC23E700221146A0
:1046900007F03EFCA3681A685B685040184214BFDC
:1046A0004FF0FF30002007B0BDE8F08F002D3FF441
:1046B00011AF2978FDF7E0FF0CE70121FEF7D2F8F2
:1046C00056B14FF40063009339494FF6FF7300224F
:1046D000204607F0DFFBFDE6354900964FF2FF73F9
:1046E0003246204607F0D6FBF4E60121FEF7BAF881
:1046F00006F001034FF2FF72002B18BF4FF4006267
:104700004FF6FF7304BF13460022B5074CBF42F4B7
:10471000805223F480530092254958BF9BB2002257
:10472000204607F0B7FBD5E62AB1224B22490222E8
:1047300007F088FECEE6214B1F49022207F082FED9
:10474000C8E61146FEF712F9C4E6002D3FF4C2AEEA
:104750001B49002207F0F6FB2870BBE62946FEF74E
:1047600025F9B7E62946FEF745F9B3E6FDF7A8FEB9
:10477000B0E61146FEF762F9ACE61146FFF7A4FB7E
:10478000A8E600BF30000F005400010058000100EF
:104790005C00010060000100180001001C00010025
:1047A0000C000100140001000400110008000100C9
:1047B000080011007488D204100011001408D200FF
:1047C0001C000700002D3FF485AE2B78C26D537797
:1047D0001B0303F430430093002244F6FF731021BF
:1047E00007F058FB76E6002D3FF474AE2B880022CC
:1047F0004FF4602107F0F6FD6CE6002D3FF46AAE41
:1048000000224FF4602107F092FB288062E6002D21
:104810003FF460AE2B88B449002207F0E3FD59E66F
:10482000002D3FF457AEB049002207F080FB2880EE
:1048300050E6002D3FF44EAE2B680093AB88EA881B
:104840004FF4B01107F0B8FD44E6002D3FF442AE3E
:104850002B680093AB88EA884FF4B01107F04FFB48
:1048600038E6002D3FF436AEEB88AA882968FEF7BB
:1048700067F92FE6002D3FF42DAEEB882A68A98852
:10488000FEF72EFB26E61146FEF77AFD22E6002D06
:104890003FF420AE2B796A882988FFF781FA19E660
:1048A000002D3FF417AEC36D9B7D012B0FD0032B62
:1048B00010D10C224FF4F011204607F038FBC0F362
:1048C0000C03C00448BF43F470432B8002E68749C1
:1048D0000022F1E786490022EEE7002D3FF4FAAD11
:1048E00005AB009383490323002207F008FB9DF8E2
:1048F00014302B60EEE5FDF7F7FEEBE5002D3FF4FD
:10490000E9AD6988FFF776FA2870E3E5294607F0F4
:104910003BFBDFE5002D3FF4DDAD2A79296807B0C8
:10492000BDE8F04F07F0C4BC002D3FF4D3AD012229
:10493000742107F0EDFA2860CCE5002D3FF4CAADF4
:104940000022742107F0E4FA2860C3E500950523EE
:104950000022742107F0D3FABCE5002D3FF4BAAD74
:10496000C36D9B7D012B0FD0032B10D116224FF46A
:10497000F011204607F0DBFAC0F30D00810448BFB8
:1049800040F440402880A5E55B490222F1E75B49FD
:104990000222EEE706235A490095002207F0AFFAFB
:1049A0006B7903F001036B7194E5002D3FF492AD38
:1049B00001224FF0081107F0C5FA28708AE5002D92
:1049C0003FF488AD00224FF0081107F0BBFA2870C1
:1049D00080E5002D3FF47EADAA882968FEF7DEFF52
:1049E00078E5002D3FF476AD2E68AD8831462A4635
:1049F000FEF7D4FF29462046FDF798FE301A18BF6F
:104A00004FF0FF304FE60121FDF72CFF022E07D1BA
:104A1000002300933B49FE230122204607F04CFA75
:104A200000231A462046384907F0D0FC36490223B5
:104A30000022204607F0CAFC4CE5002D3FF44AADA9
:104A40002E882A784FF48171FDF7B4FE320A40F2C5
:104A500003112046FDF7AEFE3CE5002D3FF43AADD4
:104A60001023002229490093FF2307F025FA4FF471
:104A700082712046FDF77CFE00F0E0073A464FF4D5
:104A800082712046FDF796FE47F004024FF48271D2
:104A90002046FDF78FFE022007F075F84FF487716E
:104AA0002046FDF765FE40F20F1106462046FDF751
:104AB0005FFE3A4680464FF482712046FDF77AFE4B
:104AC000002212490092EF23204646EA082607F00A
:104AD000F3F92E80FEE4002D3FF4FCACAA7829887F
:104AE000FDF794FEF6E400BF040001000C0018007E
:104AF00020000C0029000600140018001C000C0007
:104B000018000C000800110004000A00480007000B
:104B1000FDF7EAFD012007F036F80323CB490093A7
:104B20000022FF23204607F0C7F900231A464FF45E
:104B30008811204607F04AFC012007F024F8E36DB5
:104B400002210022198381219A83DA8219829A74C0
:104B500083F83020BEE4002D3FF4BCAC2978FDF78B
:104B6000B9FDB7E4002D3FF4B5ACC36D5B7D2B7090
:104B7000B0E40121FEF7C6FF2046FFF731F92046D9
:104B8000FEF762FE0F2201212046FFF723FAA1E47F
:104B9000002D3FF49FACD5E90012FFF71BFA99E412
:104BA000002D3FF497AC07F0A8FC288092E4002D7C
:104BB0003FF490AC2879FBF759FBE36D0646D87BB0
:104BC000FBF754FB01463046FBF79EFAA049FBF782
:104BD000A5FBA049FBF79AFA28607BE4002D3FF47F
:104BE00079AC2879FBF742FBE36D0646987BFBF72F
:104BF0003DFB01463046FBF787FA9749FBF78EFBF2
:104C00004FF08341FBF78AFB9449FBF73BFC944947
:104C1000FBF77CFA28605DE4002D3FF45BAC0121DA
:104C20002D68FEF76FFF2046FFF7DAF82046FEF703
:104C30000BFE29462046FDF7BDFF4BE4FDF74EFC79
:104C40002046FEF761FB20460121FEF77BFB204654
:104C5000FDF7A8FF3EE400221146FFF7BBF920460E
:104C6000FEF752FB20460121FEF76CFB2046FDF7C4
:104C700099FF2FE400227B490092EF2307F01CF9F3
:104C800028E4002D3FF426AC002277496E682F8877
:104C900007F03EF9012105462046FEF733FF204686
:104CA000FFF79EF82046FEF7CFFD2EB16E49334642
:104CB0000022204607F0C6FB20466C4B6C490022C0
:104CC00007F0C0FB6B494FF0DD330022204607F0B0
:104CD000B9FB384606F06AFF00231A4620466449AD
:104CE00007F0B0FB00231A466249204607F0AAFBF2
:104CF0002046FEF709FB2046FDF754FF2046012120
:104D0000FEF720FB58492B460022204607F09AFB6D
:104D1000FFF7E0BB002D3FF4DDAB2968FDF74AFF4C
:104D2000FFF7D8BB0022544907F001F9C0F30B0389
:104D3000020548BF43F470432B80E26DB2F91A209C
:104D4000981AB0E4002D3FF4C5AB2A7A6968FEF7E3
:104D5000F5F82870FFF7BEBBAB79E9792A7ADB005A
:104D600043EA410313436A79444943EA82132A79A7
:104D700043EAC213EA7843EA0223AA7843EAC22349
:104D80006A7843EA02339BB2002207F02BFBFFF75D
:104D9000A1BB002D3FF49EAB6B7813B15B08013BC8
:104DA000DBB22B70FFF796BB3549002207F0B0F855
:104DB000C0F30B03C0F30B4032492B806880002204
:104DC000204607F0A5F8C0F30B03C0F30B40AB80FF
:104DD0002D49E8800022204607F09AF82872000C3E
:104DE0002A4968720022204607F092F8C0F30B436C
:104DF000C0F30B002649AB8168810022204607F0F2
:104E000087F8C0F30B43A5F80F302249A87300229E
:104E1000204607F07DF86874000C1F49A874002232
:104E2000204607F075F80022C0F30B00A5F8130028
:104E30001A496A75AA75204607F084F8E875FFF7E5
:104E400049BB114607F008FBFFF744BB0400110003
:104E50006666863F0000B041CDCCCC3E00007F436B
:104E60000000404024000F000C0001000F00000F64
:104E70002800070038000700080002003000010089
:104E800004000F0008000F000C000F0010000F00BE
:104E900014000F0018000F001C000F0028000F0066
:104EA000002D3FF417AB2B88CA49002207F09AFA6D
:104EB000FFF710BB002D3FF40DAB2B68AA883BB168
:104EC00022F0F003C449002207F08CFAFFF702BB7E
:104ED000C1491A4607F086FAFFF7FCBA002D3FF4E5
:104EE000F9AA2A6882B113463421002207F0AAFAEF
:104EF0004FF40073009300224FF6FF7310212046F9
:104F000006F0C8FFFFF7E6BA00924FF6FF531021F4
:104F100006F0C0FFFFF7DEBA002D3FF4DBAA698878
:104F2000FDF726FC2870FFF7D5BA002D3FF4D2AA72
:104F3000AA782988FDF73EFCFFF7CCBA012AC26D9A
:104F4000A64B927DA64908BF1946A64B18BF4FF045
:104F50000C13012A0DD0032A12D100224FF4F011B4
:104F600006F0E5FF2880003818BF01204042FFF717
:104F70009ABB0222204606F0DAFFC0F3CF10F1E719
:104F800002221946F6E7002D3FF4A4AA2978FEF77D
:104F9000C1FCFFF79FBA1146204607B0BDE8F04FAD
:104FA000FEF7DCBD0095042300221C2106F0A7FFBC
:104FB000FFF790BA002D3FF48DAA0222442106F09B
:104FC000B6FFC0F300202870FFF784BA002D3FF42D
:104FD00081AA0022442106F0B5FF00F001002870EC
:104FE000FFF778BA002D3FF475AA6A88298807F080
:104FF00047FAFFF76FBA009508230022042107F053
:10500000DBF9FFF767BA009508230022042106F0B8
:1050100076FFFFF75FBA002D3FF45CAA2B880222CF
:105020000C2107F0DFF9FFF755BA002D3FF452AA23
:105030002B8800220C2107F0D5F9FFF74BBA29463F
:10504000FEF746F9FFF746BAC36D9B7D0095012B2D
:105050000AD0032B4FF005030DD120224FF4F0119D
:1050600006F04DFFFFF736BA5F490523002206F030
:1050700046FFFFF72FBA00224FF4402106F03FFF12
:10508000FFF728BA002205F8012B042300957021B0
:1050900006F035FFFFF71EBA002D3FF41BAA0122D0
:1050A000642106F035FF2860FFF714BA002D3FF4A5
:1050B00011AA0022642106F02BFF2860FFF70ABA2C
:1050C000C36D9B7D0095012B0AD0032B4FF0050388
:1050D0000DD128224FF4F01106F011FFFFF7FAB9B5
:1050E00042490523002206F00AFFFFF7F3B94049C1
:1050F000002206F004FFFFF7EDB9002D3FF4EAA906
:1051000000221C2106F004FF2860FFF7E3B9002D00
:105110003FF4E0A96F682E882D7A07EB8505AF4232
:105120003FF4D8A931462046FDF700FB013647F889
:10513000040BB6B2F3E7002D3FF4CCA92B78012283
:10514000282107F043F9FFF7C5B907B0BDE8F04FD4
:10515000FDF74ABD114607B0BDE8F04FFDF79EBD13
:10516000002D3FF4B7A9AE78FEF76EFB0021204674
:10517000FEF7C8FC2046FEF733FE06F03F031D494C
:105180001D4E0022204607F021F9012300931A4901
:10519000FF230022204606F08FFE002231462046E3
:1051A00006F0D0FE10F00107F7D13A461349204629
:1051B00006F0BDFE06462046FDF7F4FC39462046C3
:1051C000FEF7C0F8C6F30B062046FEF79DF82E80CA
:1051D000FFF780B9040006001A001100340018001F
:1051E0002C00180014000C002000180028001800E3
:1051F00008000C001C000700100008001400080044
:10520000C349002207B0BDE8F04F06F081BE02217D
:10521000FEF7A4FC0121BFE6D6B2022ED4BF3603AE
:10522000033EBC4ABC49D4BF46F48073730007F008
:1052300055F9FFF74FB9002D3FF44CA9D5E90012FD
:1052400007F0BDF9FFF746B9002D3FF443A92B88BD
:10525000B249002207F0C6F8FFF73CB9002D3FF431
:1052600039A96A682988FEF71DF8FFF733B9002DC0
:105270003FF430A96E782D78C36DC5B901229A75B7
:10528000A74918232A4607F0DDF8E8232A46A5494E
:10529000204607F0D7F86FF008022B466EB943F4AA
:1052A00080631021204607F019F9FFF713B9002297
:1052B0009A754FF0FF320823F0E722F48062F0E79E
:1052C000002D3FF407A92B680022302107F0BAF81F
:1052D000FFF700B9002D3FF4FDA80022314606F08B
:1052E00017FE2860FFF7F6B82B460022314607F07C
:1052F000A9F8FFF7EFB8002D3FF4ECA8FDF712F97D
:105300002870FFF7E7B8002D3FF4E4A82B680022CF
:10531000442107F097F8FFF7DDB8002D3FF4DAA835
:105320002B880022482107F05DF8FFF7D3B8002D45
:105330003FF4D0A80022442106F0EAFD2860FFF7E0
:10534000C9B8002D3FF4C6A80022482106F0EFFDA1
:105350002860FFF7BFB8002D3FF4BCA82B78724936
:10536000002207F033F8FFF7B5B8002D3FF4B2A8DC
:105370000022442106F0E6FD2870FFF7ABB8002DAF
:105380003FF4A8A8FEF7CCF82880FFF7A3B8002DBB
:105390003FF4A0A86549002206F0C9FD2880FFF768
:1053A00099B8002D3FF496A86149002206F0B0FD9F
:1053B0002860FFF78FB8002D3FF48CA82B885C493C
:1053C000C3F30D03009300224FF4404306F062FD47
:1053D000FFF780B8002D3FF47DA86B6900932B691F
:1053E0002A7BA968A888FCF78BFF2860FFF772B8B2
:1053F000002D3FF46FA8D5E902236968FEF780FE0F
:105400002860FFF767B8002D3FF464A8EA68297A9E
:105410006868FEF709FE2860FFF75CB8002D3FF4CE
:1054200059A82B684349002207F00CF8FFF752B83F
:10543000002D3FF44FA86B682E78012B15BFDF2796
:10544000EF276FF460326FF4E0424FF000034FF447
:10545000A0214FF0000514BF4FF020084FF01008B6
:1054600007F03CF82D4900953B462A46204606F0B9
:1054700023FD012E08D1304900953B462A4620469F
:1054800006F01AFDFFF726B8002E7FF423A82A495C
:10549000CDF80080FF233246204606F00DFDFFF7D1
:1054A00019B8002D3FF416A8297811F001051FBF87
:1054B0004D0105F0400540264FF4E01204BF2E4692
:1054C0002A4611F0040309D0090101F0800142F4D9
:1054D000600246F080060D434FF40013F6430027A8
:1054E0002046B6B2D2434FF4A02106F0F7FF334670
:1054F0003A4620460949009706F0CCFC0E49009533
:1055000033463A46204606F0C5FCFEF7E3BF00BF2F
:105510000C000900FD8EFFFF1400070008000500C5
:105520000C001F0010001F00240001002C000500CB
:105530001A000E00100009000C000500082300935B
:105540000122FF234FF4802106F0B6FC02230093D2
:1055500020460025BC49FF23032206F0ADFC20466F
:105560000095F72301224FF4802106F0A5FCB649EF
:105570000095FD230322204606F09EFCFEF7AABFFD
:10558000002D3EF4A7AF6B882A78DB0003F4FF639D
:105590000AB143F40063009300224FF207034FF473
:1055A0008021204606F076FCFEF794BF002D3EF4E5
:1055B00091AF052A2F68B5F8048095F8069040F061
:1055C0006D8195F9070010F17F0F18D1204606F084
:1055D00094FFC0F30720FAF749FEE36D0546D87B38
:1055E000FAF744FE01462846FAF78EFD9749FAF786
:1055F00095FE9749FAF78AFDFBF756F840B25F2807
:1056000012DD04212046FDF791F868B120F47023E3
:10561000C0F30340023820EAE07043EA00438D49BA
:105620000022204606F00EFF8B494FF01A1300228D
:10563000204606F007FF0025884B894A8949204605
:1056400006F04CFF88490095FE232A46204606F0C6
:1056500033FC86490222204606F074FC032828D138
:1056600083492A46204606F053FC814940F0030353
:1056700082462A46204606F0E5FE73492A46204621
:1056800006F046FC20F4000626F480766E4946F4C7
:1056900000032A46204606F0D5FE6B4933462A46CB
:1056A000204606F0CFFE724953462A46204606F0B1
:1056B000C9FE704B7049714EDFF8C4B1002220461C
:1056C00006F0C0FE41F63C7300224FF41021204644
:1056D00006F0B8FE14236B490122204606F076FE40
:1056E00069490022204606F013FC20F47F0343F4AE
:1056F000602365490022204606F0A4FE634900228B
:10570000204606F005FC20F4002323F0FF0343F4B9
:10571000002343F0FC035D490022204606F092FE80
:1057200000224FF4E021204606F0F2FB002240F078
:1057300080634FF4E021204606F084FE54490022A5
:10574000204606F0E5FB00F01F0343EA072350491B
:105750000022204606F076FE4C490022204606F044
:10576000D7FB4A4940F480730022204606F06AFEC7
:1057700048490022204606F0CBFB464940F48053BE
:105780000022204606F05EFE344B00224FF4E0215A
:10579000204606F057FE404606F008FA002547E08E
:1057A000404606F003FA00223146204606F0CAFBC6
:1057B000394982460022204606F0C4FB032801D066
:1057C0000B2829D1BAF1460F2BD102230093204692
:1057D00027494FF6FF73002206F05CFB20461A496A
:1057E0004FF480036FF4000206F078FE204616495D
:1057F00000236FF4800206F071FE00231A46204653
:10580000184906F01FFE00231A464FF4E0212046F7
:1058100006F018FEFEF75EBE430710D501377F087D
:10582000013F1B493B025A46204606F057FE013510
:10583000EBB29945B4D8B1D1FE20FEF734BF800752
:105840005CBF7F000137ECE7080011006666863F09
:105850000000B041400007004800070000C00204FB
:10586000FF3FFAFB040007001400010030000F00A6
:10587000040011003411071C1C0007000C00090073
:10588000FF00C0FF500007001800070008000900D3
:1058900004000900100009003C000700C7494FF050
:1058A0001A13002206F0CEFDC54BC64AC649204653
:1058B00006F014FE0123C54900930022FF23204671
:1058C00006F0FAFAC2490222204606F03BFB032802
:1058D0003D4628D1BF490022204606F019FBBD49AC
:1058E00040F0030382460022204606F0ABFDBA4991
:1058F0000022204606F00CFB20F4000626F48076F9
:10590000B54946F400030022204606F09BFDB2494B
:1059100033460022204606F095FDAE49534600224C
:10592000204606F08FFDAD4BAD49DFF8B8B200223E
:10593000204606F087FD41F63C7300224FF410210B
:10594000204606F07FFD1423A7490122204606F0D9
:105950003DFDA6490022204606F0DAFA20F47F0336
:1059600043F46023A1490022204606F06BFDA049C4
:105970000022204606F0CCFA20F4002323F0FF0397
:1059800043F4002343F0FC0399490022204606F02B
:1059900059FD00224FF4E021204606F0B9FA00221A
:1059A00040F080634FF4E021204606F04BFDFB04FD
:1059B00003F080738F49002207F01F0720461F4322
:1059C00006F0A6FA8C4B8B4903403B43002220464D
:1059D00006F038FD8649894F0022204606F098FAE5
:1059E000834940F480730022204606F02BFD844951
:1059F0000022204606F08CFA814940F480530022B0
:105A0000204606F01FFD6E4B00224FF4E021204699
:105A100006F018FD404606F0C9F800262BE0404687
:105A200006F0C4F800223946204606F08BFA002220
:105A300074498246204606F085FA00F00F020B2AD0
:105A400004D10AF07F03672B3FF4BFAE41075ABF72
:105A50006FEAD00000F001004FF0FF300544EB0486
:105A600005F01F0203F08073134362495A46204633
:105A700006F034FD0136F3B29945D0D8CDD1DBE63E
:105A8000002D3EF427AD2D780123AA1C9340013B45
:105A9000DBB200224FF4003106F098FC00224B49A3
:105AA000204606F035FA584BE26D05FB0333DB0B5D
:105AB0005383E36D83F83150FEF70CBD002D3EF4A7
:105AC00009AD2B7B002B3EF405AD6A7B4F4B504953
:105AD00033F81230AA7B012A9BBF4FF435625A4338
